{
  "_format": "hh-sol-artifact-1",
  "contractName": "ManaTree",
  "sourceName": "contracts/ManaTree.sol",
  "abi": [
    {
      "inputs": [
        {
          "internalType": "string[]",
          "name": "characterNames",
          "type": "string[]"
        },
        {
          "internalType": "string[]",
          "name": "characterImageURIs",
          "type": "string[]"
        },
        {
          "internalType": "uint256[]",
          "name": "hasWorkout",
          "type": "uint256[]"
        },
        {
          "internalType": "string",
          "name": "treeName",
          "type": "string"
        },
        {
          "internalType": "string",
          "name": "treeImageURI",
          "type": "string"
        },
        {
          "internalType": "uint256",
          "name": "treeLevel",
          "type": "uint256"
        }
      ],
      "stateMutability": "nonpayable",
      "type": "constructor"
    },
    {
      "anonymous": false,
      "inputs": [
        {
          "indexed": true,
          "internalType": "address",
          "name": "owner",
          "type": "address"
        },
        {
          "indexed": true,
          "internalType": "address",
          "name": "approved",
          "type": "address"
        },
        {
          "indexed": true,
          "internalType": "uint256",
          "name": "tokenId",
          "type": "uint256"
        }
      ],
      "name": "Approval",
      "type": "event"
    },
    {
      "anonymous": false,
      "inputs": [
        {
          "indexed": true,
          "internalType": "address",
          "name": "owner",
          "type": "address"
        },
        {
          "indexed": true,
          "internalType": "address",
          "name": "operator",
          "type": "address"
        },
        {
          "indexed": false,
          "internalType": "bool",
          "name": "approved",
          "type": "bool"
        }
      ],
      "name": "ApprovalForAll",
      "type": "event"
    },
    {
      "anonymous": false,
      "inputs": [
        {
          "indexed": false,
          "internalType": "address",
          "name": "sender",
          "type": "address"
        },
        {
          "indexed": false,
          "internalType": "uint256",
          "name": "tokenId",
          "type": "uint256"
        },
        {
          "indexed": false,
          "internalType": "uint256",
          "name": "characterIndex",
          "type": "uint256"
        }
      ],
      "name": "DojoAvatarNFTMinted",
      "type": "event"
    },
    {
      "anonymous": false,
      "inputs": [
        {
          "indexed": true,
          "internalType": "address",
          "name": "from",
          "type": "address"
        },
        {
          "indexed": true,
          "internalType": "address",
          "name": "to",
          "type": "address"
        },
        {
          "indexed": true,
          "internalType": "uint256",
          "name": "tokenId",
          "type": "uint256"
        }
      ],
      "name": "Transfer",
      "type": "event"
    },
    {
      "anonymous": false,
      "inputs": [
        {
          "indexed": false,
          "internalType": "address",
          "name": "sender",
          "type": "address"
        }
      ],
      "name": "WateringComplete",
      "type": "event"
    },
    {
      "inputs": [
        {
          "internalType": "address",
          "name": "to",
          "type": "address"
        },
        {
          "internalType": "uint256",
          "name": "tokenId",
          "type": "uint256"
        }
      ],
      "name": "approve",
      "outputs": [],
      "stateMutability": "nonpayable",
      "type": "function"
    },
    {
      "inputs": [
        {
          "internalType": "address",
          "name": "owner",
          "type": "address"
        }
      ],
      "name": "balanceOf",
      "outputs": [
        {
          "internalType": "uint256",
          "name": "",
          "type": "uint256"
        }
      ],
      "stateMutability": "view",
      "type": "function"
    },
    {
      "inputs": [],
      "name": "checkIfUserHasNFT",
      "outputs": [
        {
          "components": [
            {
              "internalType": "uint256",
              "name": "characterIndex",
              "type": "uint256"
            },
            {
              "internalType": "string",
              "name": "name",
              "type": "string"
            },
            {
              "internalType": "string",
              "name": "imageURI",
              "type": "string"
            },
            {
              "internalType": "uint256",
              "name": "hasWorkout",
              "type": "uint256"
            }
          ],
          "internalType": "struct ManaTree.DojoAvatarAttributes",
          "name": "",
          "type": "tuple"
        }
      ],
      "stateMutability": "view",
      "type": "function"
    },
    {
      "inputs": [],
      "name": "getAllDefaultCharacters",
      "outputs": [
        {
          "components": [
            {
              "internalType": "uint256",
              "name": "characterIndex",
              "type": "uint256"
            },
            {
              "internalType": "string",
              "name": "name",
              "type": "string"
            },
            {
              "internalType": "string",
              "name": "imageURI",
              "type": "string"
            },
            {
              "internalType": "uint256",
              "name": "hasWorkout",
              "type": "uint256"
            }
          ],
          "internalType": "struct ManaTree.DojoAvatarAttributes[]",
          "name": "",
          "type": "tuple[]"
        }
      ],
      "stateMutability": "view",
      "type": "function"
    },
    {
      "inputs": [
        {
          "internalType": "uint256",
          "name": "tokenId",
          "type": "uint256"
        }
      ],
      "name": "getApproved",
      "outputs": [
        {
          "internalType": "address",
          "name": "",
          "type": "address"
        }
      ],
      "stateMutability": "view",
      "type": "function"
    },
    {
      "inputs": [],
      "name": "getManaTree",
      "outputs": [
        {
          "components": [
            {
              "internalType": "string",
              "name": "name",
              "type": "string"
            },
            {
              "internalType": "string",
              "name": "imageURI",
              "type": "string"
            },
            {
              "internalType": "uint256",
              "name": "level",
              "type": "uint256"
            }
          ],
          "internalType": "struct ManaTree.TheTree",
          "name": "",
          "type": "tuple"
        }
      ],
      "stateMutability": "view",
      "type": "function"
    },
    {
      "inputs": [
        {
          "internalType": "address",
          "name": "owner",
          "type": "address"
        },
        {
          "internalType": "address",
          "name": "operator",
          "type": "address"
        }
      ],
      "name": "isApprovedForAll",
      "outputs": [
        {
          "internalType": "bool",
          "name": "",
          "type": "bool"
        }
      ],
      "stateMutability": "view",
      "type": "function"
    },
    {
      "inputs": [],
      "name": "manaTree",
      "outputs": [
        {
          "internalType": "string",
          "name": "name",
          "type": "string"
        },
        {
          "internalType": "string",
          "name": "imageURI",
          "type": "string"
        },
        {
          "internalType": "uint256",
          "name": "level",
          "type": "uint256"
        }
      ],
      "stateMutability": "view",
      "type": "function"
    },
    {
      "inputs": [],
      "name": "mintCharacterNFT",
      "outputs": [],
      "stateMutability": "nonpayable",
      "type": "function"
    },
    {
      "inputs": [],
      "name": "name",
      "outputs": [
        {
          "internalType": "string",
          "name": "",
          "type": "string"
        }
      ],
      "stateMutability": "view",
      "type": "function"
    },
    {
      "inputs": [
        {
          "internalType": "uint256",
          "name": "",
          "type": "uint256"
        }
      ],
      "name": "nftHolderAttributes",
      "outputs": [
        {
          "internalType": "uint256",
          "name": "characterIndex",
          "type": "uint256"
        },
        {
          "internalType": "string",
          "name": "name",
          "type": "string"
        },
        {
          "internalType": "string",
          "name": "imageURI",
          "type": "string"
        },
        {
          "internalType": "uint256",
          "name": "hasWorkout",
          "type": "uint256"
        }
      ],
      "stateMutability": "view",
      "type": "function"
    },
    {
      "inputs": [
        {
          "internalType": "address",
          "name": "",
          "type": "address"
        }
      ],
      "name": "nftHolders",
      "outputs": [
        {
          "internalType": "uint256",
          "name": "",
          "type": "uint256"
        }
      ],
      "stateMutability": "view",
      "type": "function"
    },
    {
      "inputs": [
        {
          "internalType": "uint256",
          "name": "tokenId",
          "type": "uint256"
        }
      ],
      "name": "ownerOf",
      "outputs": [
        {
          "internalType": "address",
          "name": "",
          "type": "address"
        }
      ],
      "stateMutability": "view",
      "type": "function"
    },
    {
      "inputs": [
        {
          "internalType": "address",
          "name": "from",
          "type": "address"
        },
        {
          "internalType": "address",
          "name": "to",
          "type": "address"
        },
        {
          "internalType": "uint256",
          "name": "tokenId",
          "type": "uint256"
        }
      ],
      "name": "safeTransferFrom",
      "outputs": [],
      "stateMutability": "nonpayable",
      "type": "function"
    },
    {
      "inputs": [
        {
          "internalType": "address",
          "name": "from",
          "type": "address"
        },
        {
          "internalType": "address",
          "name": "to",
          "type": "address"
        },
        {
          "internalType": "uint256",
          "name": "tokenId",
          "type": "uint256"
        },
        {
          "internalType": "bytes",
          "name": "_data",
          "type": "bytes"
        }
      ],
      "name": "safeTransferFrom",
      "outputs": [],
      "stateMutability": "nonpayable",
      "type": "function"
    },
    {
      "inputs": [
        {
          "internalType": "address",
          "name": "operator",
          "type": "address"
        },
        {
          "internalType": "bool",
          "name": "approved",
          "type": "bool"
        }
      ],
      "name": "setApprovalForAll",
      "outputs": [],
      "stateMutability": "nonpayable",
      "type": "function"
    },
    {
      "inputs": [
        {
          "internalType": "bytes4",
          "name": "interfaceId",
          "type": "bytes4"
        }
      ],
      "name": "supportsInterface",
      "outputs": [
        {
          "internalType": "bool",
          "name": "",
          "type": "bool"
        }
      ],
      "stateMutability": "view",
      "type": "function"
    },
    {
      "inputs": [],
      "name": "symbol",
      "outputs": [
        {
          "internalType": "string",
          "name": "",
          "type": "string"
        }
      ],
      "stateMutability": "view",
      "type": "function"
    },
    {
      "inputs": [
        {
          "internalType": "uint256",
          "name": "_tokenId",
          "type": "uint256"
        }
      ],
      "name": "tokenURI",
      "outputs": [
        {
          "internalType": "string",
          "name": "",
          "type": "string"
        }
      ],
      "stateMutability": "view",
      "type": "function"
    },
    {
      "inputs": [
        {
          "internalType": "address",
          "name": "from",
          "type": "address"
        },
        {
          "internalType": "address",
          "name": "to",
          "type": "address"
        },
        {
          "internalType": "uint256",
          "name": "tokenId",
          "type": "uint256"
        }
      ],
      "name": "transferFrom",
      "outputs": [],
      "stateMutability": "nonpayable",
      "type": "function"
    },
    {
      "inputs": [],
      "name": "updateUserWorkoutStatus",
      "outputs": [],
      "stateMutability": "nonpayable",
      "type": "function"
    },
    {
      "inputs": [],
      "name": "waterTree",
      "outputs": [],
      "stateMutability": "nonpayable",
      "type": "function"
    }
  ],
  "bytecode": "0x60806040523480156200001157600080fd5b50604051620056fc380380620056fc833981810160405281019062000037919062000990565b6040518060400160405280601081526020017f446f6a6f4865616c7468417661746172000000000000000000000000000000008152506040518060400160405280600481526020017f444f4a4f000000000000000000000000000000000000000000000000000000008152508160009080519060200190620000bb92919062000723565b508060019080519060200190620000d492919062000723565b505050604051806060016040528084815260200183815260200182815250600960008201518160000190805190602001906200011292919062000723565b5060208201518160010190805190602001906200013192919062000723565b50604082015181600201559050506200029a604051806060016040528060238152602001620056d960239139600960000180546200016f9062000cac565b80601f01602080910402602001604051908101604052809291908181526020018280546200019d9062000cac565b8015620001ee5780601f10620001c257610100808354040283529160200191620001ee565b820191906000526020600020905b815481529060010190602001808311620001d057829003601f168201915b505050505060096001018054620002059062000cac565b80601f0160208091040260200160405190810160405280929190818152602001828054620002339062000cac565b8015620002845780601f10620002585761010080835404028352916020019162000284565b820191906000526020600020905b8154815290600101906020018083116200026657829003601f168201915b50505050506200063b60201b62001d911760201c565b60005b8651811015620006175760076040518060800160405280838152602001898481518110620002f4577f4e487b7100000000000000000000000000000000000000000000000000000000600052603260045260246000fd5b602002602001015181526020018884815181106200033b577f4e487b7100000000000000000000000000000000000000000000000000000000600052603260045260246000fd5b6020026020010151815260200187848151811062000382577f4e487b7100000000000000000000000000000000000000000000000000000000600052603260045260246000fd5b60200260200101518152509080600181540180825580915050600190039060005260206000209060040201600090919091909150600082015181600001556020820151816001019080519060200190620003de92919062000723565b506040820151816002019080519060200190620003fd92919062000723565b5060608201518160030155505060006007828154811062000447577f4e487b7100000000000000000000000000000000000000000000000000000000600052603260045260246000fd5b9060005260206000209060040201604051806080016040529081600082015481526020016001820180546200047c9062000cac565b80601f0160208091040260200160405190810160405280929190818152602001828054620004aa9062000cac565b8015620004fb5780601f10620004cf57610100808354040283529160200191620004fb565b820191906000526020600020905b815481529060010190602001808311620004dd57829003601f168201915b50505050508152602001600282018054620005169062000cac565b80601f0160208091040260200160405190810160405280929190818152602001828054620005449062000cac565b8015620005955780601f10620005695761010080835404028352916020019162000595565b820191906000526020600020905b8154815290600101906020018083116200057757829003601f168201915b505050505081526020016003820154815250509050620005ff6040518060400160405280601e81526020017f446f6e6520696e697469616c697a696e6720257320772f20696d672025730000815250826020015183604001516200063b60201b62001d911760201c565b506001816200060f919062000c0f565b90506200029d565b506200062f6006620006e460201b62001e301760201c565b50505050505062000dd0565b620006df838383604051602401620006569392919062000ae4565b6040516020818303038152906040527f2ced7cef000000000000000000000000000000000000000000000000000000007bffffffffffffffffffffffffffffffffffffffffffffffffffffffff19166020820180517bffffffffffffffffffffffffffffffffffffffffffffffffffffffff8381831617835250505050620006fa60201b60201c565b505050565b6001816000016000828254019250508190555050565b60008151905060006a636f6e736f6c652e6c6f679050602083016000808483855afa5050505050565b828054620007319062000cac565b90600052602060002090601f016020900481019282620007555760008555620007a1565b82601f106200077057805160ff1916838001178555620007a1565b82800160010185558215620007a1579182015b82811115620007a057825182559160200191906001019062000783565b5b509050620007b09190620007b4565b5090565b5b80821115620007cf576000816000905550600101620007b5565b5090565b6000620007ea620007e48462000b5f565b62000b36565b9050808382526020820190508260005b858110156200082e57815185016200081388826200094c565b845260208401935060208301925050600181019050620007fa565b5050509392505050565b60006200084f620008498462000b8e565b62000b36565b905080838252602082019050828560208602820111156200086f57600080fd5b60005b85811015620008a3578162000888888262000979565b84526020840193506020830192505060018101905062000872565b5050509392505050565b6000620008c4620008be8462000bbd565b62000b36565b905082815260208101848484011115620008dd57600080fd5b620008ea84828562000c76565b509392505050565b600082601f8301126200090457600080fd5b815162000916848260208601620007d3565b91505092915050565b600082601f8301126200093157600080fd5b81516200094384826020860162000838565b91505092915050565b600082601f8301126200095e57600080fd5b815162000970848260208601620008ad565b91505092915050565b6000815190506200098a8162000db6565b92915050565b60008060008060008060c08789031215620009aa57600080fd5b600087015167ffffffffffffffff811115620009c557600080fd5b620009d389828a01620008f2565b965050602087015167ffffffffffffffff811115620009f157600080fd5b620009ff89828a01620008f2565b955050604087015167ffffffffffffffff81111562000a1d57600080fd5b62000a2b89828a016200091f565b945050606087015167ffffffffffffffff81111562000a4957600080fd5b62000a5789828a016200094c565b935050608087015167ffffffffffffffff81111562000a7557600080fd5b62000a8389828a016200094c565b92505060a062000a9689828a0162000979565b9150509295509295509295565b600062000ab08262000bf3565b62000abc818562000bfe565b935062000ace81856020860162000c76565b62000ad98162000da5565b840191505092915050565b6000606082019050818103600083015262000b00818662000aa3565b9050818103602083015262000b16818562000aa3565b9050818103604083015262000b2c818462000aa3565b9050949350505050565b600062000b4262000b55565b905062000b50828262000ce2565b919050565b6000604051905090565b600067ffffffffffffffff82111562000b7d5762000b7c62000d76565b5b602082029050602081019050919050565b600067ffffffffffffffff82111562000bac5762000bab62000d76565b5b602082029050602081019050919050565b600067ffffffffffffffff82111562000bdb5762000bda62000d76565b5b62000be68262000da5565b9050602081019050919050565b600081519050919050565b600082825260208201905092915050565b600062000c1c8262000c6c565b915062000c298362000c6c565b9250827fffffffffffffffffffffffffffffffffffffffffffffffffffffffffffffffff0382111562000c615762000c6062000d18565b5b828201905092915050565b6000819050919050565b60005b8381101562000c9657808201518184015260208101905062000c79565b8381111562000ca6576000848401525b50505050565b6000600282049050600182168062000cc557607f821691505b6020821081141562000cdc5762000cdb62000d47565b5b50919050565b62000ced8262000da5565b810181811067ffffffffffffffff8211171562000d0f5762000d0e62000d76565b5b80604052505050565b7f4e487b7100000000000000000000000000000000000000000000000000000000600052601160045260246000fd5b7f4e487b7100000000000000000000000000000000000000000000000000000000600052602260045260246000fd5b7f4e487b7100000000000000000000000000000000000000000000000000000000600052604160045260246000fd5b6000601f19601f8301169050919050565b62000dc18162000c6c565b811462000dcd57600080fd5b50565b6148f98062000de06000396000f3fe608060405234801561001057600080fd5b50600436106101425760003560e01c806374bd425d116100b8578063b88d4fde1161007c578063b88d4fde14610368578063b953084e14610384578063c87b56dd146103a2578063c8cf27f4146103d2578063d97e5aff146103f0578063e985e9c5146103fa57610142565b806374bd425d146102c15780637df124a1146102cb57806395d89b41146102fb57806398da4c9514610319578063a22cb4651461034c57610142565b806323b872dd1161010a57806323b872dd146101ff5780632a06a3dd1461021b57806342842e0e146102255780636352211e146102415780636e428e341461027157806370a082311461029157610142565b806301ffc9a71461014757806306fdde0314610177578063081812fc14610195578063095ea7b3146101c557806313c0af92146101e1575b600080fd5b610161600480360381019061015c91906131df565b61042a565b60405161016e9190613948565b60405180910390f35b61017f61050c565b60405161018c9190613963565b60405180910390f35b6101af60048036038101906101aa9190613231565b61059e565b6040516101bc9190613888565b60405180910390f35b6101df60048036038101906101da91906131a3565b610623565b005b6101e961073b565b6040516101f69190613c9d565b60405180910390f35b6102196004803603810190610214919061309d565b610883565b005b6102236108e3565b005b61023f600480360381019061023a919061309d565b6109d2565b005b61025b60048036038101906102569190613231565b6109f2565b6040516102689190613888565b60405180910390f35b610279610aa4565b60405161028893929190613a08565b60405180910390f35b6102ab60048036038101906102a69190613038565b610bcc565b6040516102b89190613cbf565b60405180910390f35b6102c9610c84565b005b6102e560048036038101906102e09190613038565b610fc7565b6040516102f29190613cbf565b60405180910390f35b610303610fdf565b6040516103109190613963565b60405180910390f35b610333600480360381019061032e9190613231565b611071565b6040516103439493929190613cda565b60405180910390f35b61036660048036038101906103619190613167565b6111b1565b005b610382600480360381019061037d91906130ec565b6111c7565b005b61038c611229565b6040516103999190613926565b60405180910390f35b6103bc60048036038101906103b79190613231565b6113c0565b6040516103c99190613963565b60405180910390f35b6103da61159f565b6040516103e79190613c7b565b60405180910390f35b6103f8611763565b005b610414600480360381019061040f9190613061565b611cfd565b6040516104219190613948565b60405180910390f35b60007f80ac58cd000000000000000000000000000000000000000000000000000000007bffffffffffffffffffffffffffffffffffffffffffffffffffffffff1916827bffffffffffffffffffffffffffffffffffffffffffffffffffffffff191614806104f557507f5b5e139f000000000000000000000000000000000000000000000000000000007bffffffffffffffffffffffffffffffffffffffffffffffffffffffff1916827bffffffffffffffffffffffffffffffffffffffffffffffffffffffff1916145b80610505575061050482611e46565b5b9050919050565b60606000805461051b90613fed565b80601f016020809104026020016040519081016040528092919081815260200182805461054790613fed565b80156105945780601f1061056957610100808354040283529160200191610594565b820191906000526020600020905b81548152906001019060200180831161057757829003601f168201915b5050505050905090565b60006105a982611eb0565b6105e8576040517f08c379a00000000000000000000000000000000000000000000000000000000081526004016105df90613bfb565b60405180910390fd5b6004600083815260200190815260200160002060009054906101000a900473ffffffffffffffffffffffffffffffffffffffff169050919050565b600061062e826109f2565b90508073ffffffffffffffffffffffffffffffffffffffff168373ffffffffffffffffffffffffffffffffffffffff16141561069f576040517f08c379a000000000000000000000000000000000000000000000000000000000815260040161069690613c1b565b60405180910390fd5b8073ffffffffffffffffffffffffffffffffffffffff166106be611f1c565b73ffffffffffffffffffffffffffffffffffffffff1614806106ed57506106ec816106e7611f1c565b611cfd565b5b61072c576040517f08c379a000000000000000000000000000000000000000000000000000000000815260040161072390613b7b565b60405180910390fd5b6107368383611f24565b505050565b610743612e7b565b600960405180606001604052908160008201805461076090613fed565b80601f016020809104026020016040519081016040528092919081815260200182805461078c90613fed565b80156107d95780601f106107ae576101008083540402835291602001916107d9565b820191906000526020600020905b8154815290600101906020018083116107bc57829003601f168201915b505050505081526020016001820180546107f290613fed565b80601f016020809104026020016040519081016040528092919081815260200182805461081e90613fed565b801561086b5780601f106108405761010080835404028352916020019161086b565b820191906000526020600020905b81548152906001019060200180831161084e57829003601f168201915b50505050508152602001600282015481525050905090565b61089461088e611f1c565b82611fdd565b6108d3576040517f08c379a00000000000000000000000000000000000000000000000000000000081526004016108ca90613c3b565b60405180910390fd5b6108de8383836120bb565b505050565b6000600c60003373ffffffffffffffffffffffffffffffffffffffff1673ffffffffffffffffffffffffffffffffffffffff16815260200190815260200160002054905060006008600083815260200190815260200160002090506109816040518060400160405280602081526020017f4f6c6420446f6a6f2063686172616374657220686173576f726b6f75742025738152508260030154612322565b600181600301819055506109ce6040518060400160405280602081526020017f4e657720446f6a6f2063686172616374657220686173576f726b6f75742025738152508260030154612322565b5050565b6109ed838383604051806020016040528060008152506111c7565b505050565b6000806002600084815260200190815260200160002060009054906101000a900473ffffffffffffffffffffffffffffffffffffffff169050600073ffffffffffffffffffffffffffffffffffffffff168173ffffffffffffffffffffffffffffffffffffffff161415610a9b576040517f08c379a0000000000000000000000000000000000000000000000000000000008152600401610a9290613bbb565b60405180910390fd5b80915050919050565b6009806000018054610ab590613fed565b80601f0160208091040260200160405190810160405280929190818152602001828054610ae190613fed565b8015610b2e5780601f10610b0357610100808354040283529160200191610b2e565b820191906000526020600020905b815481529060010190602001808311610b1157829003601f168201915b505050505090806001018054610b4390613fed565b80601f0160208091040260200160405190810160405280929190818152602001828054610b6f90613fed565b8015610bbc5780601f10610b9157610100808354040283529160200191610bbc565b820191906000526020600020905b815481529060010190602001808311610b9f57829003601f168201915b5050505050908060020154905083565b60008073ffffffffffffffffffffffffffffffffffffffff168273ffffffffffffffffffffffffffffffffffffffff161415610c3d576040517f08c379a0000000000000000000000000000000000000000000000000000000008152600401610c3490613b9b565b60405180910390fd5b600360008373ffffffffffffffffffffffffffffffffffffffff1673ffffffffffffffffffffffffffffffffffffffff168152602001908152602001600020549050919050565b6000610c9060066123be565b9050610c9c33826123cc565b6040518060800160405280600081526020016007600081548110610ce9577f4e487b7100000000000000000000000000000000000000000000000000000000600052603260045260246000fd5b90600052602060002090600402016001018054610d0590613fed565b80601f0160208091040260200160405190810160405280929190818152602001828054610d3190613fed565b8015610d7e5780601f10610d5357610100808354040283529160200191610d7e565b820191906000526020600020905b815481529060010190602001808311610d6157829003601f168201915b505050505081526020016007600081548110610dc3577f4e487b7100000000000000000000000000000000000000000000000000000000600052603260045260246000fd5b90600052602060002090600402016002018054610ddf90613fed565b80601f0160208091040260200160405190810160405280929190818152602001828054610e0b90613fed565b8015610e585780601f10610e2d57610100808354040283529160200191610e58565b820191906000526020600020905b815481529060010190602001808311610e3b57829003601f168201915b505050505081526020016007600081548110610e9d577f4e487b7100000000000000000000000000000000000000000000000000000000600052603260045260246000fd5b90600052602060002090600402016003015481525060086000838152602001908152602001600020600082015181600001556020820151816001019080519060200190610eeb929190612e9c565b506040820151816002019080519060200190610f08929190612e9c565b5060608201518160030155905050610f3a6040518060600160405280602e8152602001614896602e91398260006123ea565b80600c60003373ffffffffffffffffffffffffffffffffffffffff1673ffffffffffffffffffffffffffffffffffffffff16815260200190815260200160002081905550610f886006611e30565b7fc21cfcd554c0a4e45fe8b15d62ea01a279bab79978fb83d837a12169b829605e33826000604051610fbc939291906138ef565b60405180910390a150565b600c6020528060005260406000206000915090505481565b606060018054610fee90613fed565b80601f016020809104026020016040519081016040528092919081815260200182805461101a90613fed565b80156110675780601f1061103c57610100808354040283529160200191611067565b820191906000526020600020905b81548152906001019060200180831161104a57829003601f168201915b5050505050905090565b600860205280600052604060002060009150905080600001549080600101805461109a90613fed565b80601f01602080910402602001604051908101604052809291908181526020018280546110c690613fed565b80156111135780601f106110e857610100808354040283529160200191611113565b820191906000526020600020905b8154815290600101906020018083116110f657829003601f168201915b50505050509080600201805461112890613fed565b80601f016020809104026020016040519081016040528092919081815260200182805461115490613fed565b80156111a15780601f10611176576101008083540402835291602001916111a1565b820191906000526020600020905b81548152906001019060200180831161118457829003601f168201915b5050505050908060030154905084565b6111c36111bc611f1c565b8383612489565b5050565b6111d86111d2611f1c565b83611fdd565b611217576040517f08c379a000000000000000000000000000000000000000000000000000000000815260040161120e90613c3b565b60405180910390fd5b611223848484846125f6565b50505050565b60606007805480602002602001604051908101604052809291908181526020016000905b828210156113b757838290600052602060002090600402016040518060800160405290816000820154815260200160018201805461128a90613fed565b80601f01602080910402602001604051908101604052809291908181526020018280546112b690613fed565b80156113035780601f106112d857610100808354040283529160200191611303565b820191906000526020600020905b8154815290600101906020018083116112e657829003601f168201915b5050505050815260200160028201805461131c90613fed565b80601f016020809104026020016040519081016040528092919081815260200182805461134890613fed565b80156113955780601f1061136a57610100808354040283529160200191611395565b820191906000526020600020905b81548152906001019060200180831161137857829003601f168201915b505050505081526020016003820154815250508152602001906001019061124d565b50505050905090565b6060600060086000848152602001908152602001600020604051806080016040529081600082015481526020016001820180546113fc90613fed565b80601f016020809104026020016040519081016040528092919081815260200182805461142890613fed565b80156114755780601f1061144a57610100808354040283529160200191611475565b820191906000526020600020905b81548152906001019060200180831161145857829003601f168201915b5050505050815260200160028201805461148e90613fed565b80601f01602080910402602001604051908101604052809291908181526020018280546114ba90613fed565b80156115075780601f106114dc57610100808354040283529160200191611507565b820191906000526020600020905b8154815290600101906020018083116114ea57829003601f168201915b505050505081526020016003820154815250509050600061152b8260600151612652565b9050600061156d836020015161154087612652565b85604001518560405160200161155994939291906137f1565b6040516020818303038152906040526127ff565b90506000816040516020016115829190613866565b604051602081830303815290604052905080945050505050919050565b6115a7612f22565b6000600c60003373ffffffffffffffffffffffffffffffffffffffff1673ffffffffffffffffffffffffffffffffffffffff168152602001908152602001600020549050600081111561175257600860008281526020019081526020016000206040518060800160405290816000820154815260200160018201805461162c90613fed565b80601f016020809104026020016040519081016040528092919081815260200182805461165890613fed565b80156116a55780601f1061167a576101008083540402835291602001916116a5565b820191906000526020600020905b81548152906001019060200180831161168857829003601f168201915b505050505081526020016002820180546116be90613fed565b80601f01602080910402602001604051908101604052809291908181526020018280546116ea90613fed565b80156117375780601f1061170c57610100808354040283529160200191611737565b820191906000526020600020905b81548152906001019060200180831161171a57829003601f168201915b50505050508152602001600382015481525050915050611760565b61175a612f22565b80925050505b90565b6000600c60003373ffffffffffffffffffffffffffffffffffffffff1673ffffffffffffffffffffffffffffffffffffffff168152602001908152602001600020549050600060086000838152602001908152602001600020905061186c604051806060016040528060308152602001614826603091398260010180546117e990613fed565b80601f016020809104026020016040519081016040528092919081815260200182805461181590613fed565b80156118625780601f1061183757610100808354040283529160200191611862565b820191906000526020600020905b81548152906001019060200180831161184557829003601f168201915b50505050506129bd565b6119386040518060400160405280601981526020017f5472656520257320686173206265656e20776174657265642e00000000000000815250600960000180546118b590613fed565b80601f01602080910402602001604051908101604052809291908181526020018280546118e190613fed565b801561192e5780601f106119035761010080835404028352916020019161192e565b820191906000526020600020905b81548152906001019060200180831161191157829003601f168201915b50505050506129bd565b600081600301541161197f576040517f08c379a000000000000000000000000000000000000000000000000000000000815260040161197690613c5b565b60405180910390fd5b6119c26040518060400160405280602081526020017f4f6c6420446f6a6f2063686172616374657220686173576f726b6f75742025738152508260030154612322565b611a066040518060400160405280601681526020017f4f6c64204d616e612054726565206c6576656c20257300000000000000000000815250600960020154612322565b611ad26040518060400160405280601681526020017f4f6c64204d616e61205472656520696d6167652025730000000000000000000081525060096001018054611a4f90613fed565b80601f0160208091040260200160405190810160405280929190818152602001828054611a7b90613fed565b8015611ac85780601f10611a9d57610100808354040283529160200191611ac8565b820191906000526020600020905b815481529060010190602001808311611aab57829003601f168201915b50505050506129bd565b6001600960020154611ae49190613e10565b60096002018190555060026009600201541115611b32576040518060800160405280604f81526020016147d7604f913960096001019080519060200190611b2c929190612e9c565b50611b65565b6040518060800160405280604f8152602001614788604f913960096001019080519060200190611b63929190612e9c565b505b60008160030181905550611bb26040518060400160405280602081526020017f4e657720446f6a6f2063686172616374657220686173576f726b6f75742025738152508260030154612322565b611bf66040518060400160405280601681526020017f4e6577204d616e612054726565206c6576656c20257300000000000000000000815250600960020154612322565b611cc26040518060400160405280601681526020017f4e6577204d616e61205472656520696d6167652025730000000000000000000081525060096001018054611c3f90613fed565b80601f0160208091040260200160405190810160405280929190818152602001828054611c6b90613fed565b8015611cb85780601f10611c8d57610100808354040283529160200191611cb8565b820191906000526020600020905b815481529060010190602001808311611c9b57829003601f168201915b50505050506129bd565b7f9af72798cb5d6e0951f74845cd298d28e0601fa4b2362eb7c7dae70ccd8f664133604051611cf19190613888565b60405180910390a15050565b6000600560008473ffffffffffffffffffffffffffffffffffffffff1673ffffffffffffffffffffffffffffffffffffffff16815260200190815260200160002060008373ffffffffffffffffffffffffffffffffffffffff1673ffffffffffffffffffffffffffffffffffffffff16815260200190815260200160002060009054906101000a900460ff16905092915050565b611e2b838383604051602401611da9939291906139bc565b6040516020818303038152906040527f2ced7cef000000000000000000000000000000000000000000000000000000007bffffffffffffffffffffffffffffffffffffffffffffffffffffffff19166020820180517bffffffffffffffffffffffffffffffffffffffffffffffffffffffff8381831617835250505050612a59565b505050565b6001816000016000828254019250508190555050565b60007f01ffc9a7000000000000000000000000000000000000000000000000000000007bffffffffffffffffffffffffffffffffffffffffffffffffffffffff1916827bffffffffffffffffffffffffffffffffffffffffffffffffffffffff1916149050919050565b60008073ffffffffffffffffffffffffffffffffffffffff166002600084815260200190815260200160002060009054906101000a900473ffffffffffffffffffffffffffffffffffffffff1673ffffffffffffffffffffffffffffffffffffffff1614159050919050565b600033905090565b816004600083815260200190815260200160002060006101000a81548173ffffffffffffffffffffffffffffffffffffffff021916908373ffffffffffffffffffffffffffffffffffffffff160217905550808273ffffffffffffffffffffffffffffffffffffffff16611f97836109f2565b73ffffffffffffffffffffffffffffffffffffffff167f8c5be1e5ebec7d5bd14f71427d1e84f3dd0314c0f7b2291e5b200ac8c7c3b92560405160405180910390a45050565b6000611fe882611eb0565b612027576040517f08c379a000000000000000000000000000000000000000000000000000000000815260040161201e90613b5b565b60405180910390fd5b6000612032836109f2565b90508073ffffffffffffffffffffffffffffffffffffffff168473ffffffffffffffffffffffffffffffffffffffff16148061207457506120738185611cfd565b5b806120b257508373ffffffffffffffffffffffffffffffffffffffff1661209a8461059e565b73ffffffffffffffffffffffffffffffffffffffff16145b91505092915050565b8273ffffffffffffffffffffffffffffffffffffffff166120db826109f2565b73ffffffffffffffffffffffffffffffffffffffff1614612131576040517f08c379a000000000000000000000000000000000000000000000000000000000815260040161212890613adb565b60405180910390fd5b600073ffffffffffffffffffffffffffffffffffffffff168273ffffffffffffffffffffffffffffffffffffffff1614156121a1576040517f08c379a000000000000000000000000000000000000000000000000000000000815260040161219890613b1b565b60405180910390fd5b6121ac838383612a82565b6121b7600082611f24565b6001600360008573ffffffffffffffffffffffffffffffffffffffff1673ffffffffffffffffffffffffffffffffffffffff16815260200190815260200160002060008282546122079190613ef1565b925050819055506001600360008473ffffffffffffffffffffffffffffffffffffffff1673ffffffffffffffffffffffffffffffffffffffff168152602001908152602001600020600082825461225e9190613e10565b92505081905550816002600083815260200190815260200160002060006101000a81548173ffffffffffffffffffffffffffffffffffffffff021916908373ffffffffffffffffffffffffffffffffffffffff160217905550808273ffffffffffffffffffffffffffffffffffffffff168473ffffffffffffffffffffffffffffffffffffffff167fddf252ad1be2c89b69c2b068fc378daa952ba7f163c4a11628f55a4df523b3ef60405160405180910390a461231d838383612a87565b505050565b6123ba8282604051602401612338929190613a4d565b6040516020818303038152906040527f9710a9d0000000000000000000000000000000000000000000000000000000007bffffffffffffffffffffffffffffffffffffffffffffffffffffffff19166020820180517bffffffffffffffffffffffffffffffffffffffffffffffffffffffff8381831617835250505050612a59565b5050565b600081600001549050919050565b6123e6828260405180602001604052806000815250612a8c565b5050565b61248483838360405160240161240293929190613a7d565b6040516020818303038152906040527f969cdd03000000000000000000000000000000000000000000000000000000007bffffffffffffffffffffffffffffffffffffffffffffffffffffffff19166020820180517bffffffffffffffffffffffffffffffffffffffffffffffffffffffff8381831617835250505050612a59565b505050565b8173ffffffffffffffffffffffffffffffffffffffff168373ffffffffffffffffffffffffffffffffffffffff1614156124f8576040517f08c379a00000000000000000000000000000000000000000000000000000000081526004016124ef90613b3b565b60405180910390fd5b80600560008573ffffffffffffffffffffffffffffffffffffffff1673ffffffffffffffffffffffffffffffffffffffff16815260200190815260200160002060008473ffffffffffffffffffffffffffffffffffffffff1673ffffffffffffffffffffffffffffffffffffffff16815260200190815260200160002060006101000a81548160ff0219169083151502179055508173ffffffffffffffffffffffffffffffffffffffff168373ffffffffffffffffffffffffffffffffffffffff167f17307eab39ab6107e8899845ad3d59bd9653f200f220920489ca2b5937696c31836040516125e99190613948565b60405180910390a3505050565b6126018484846120bb565b61260d84848484612ae7565b61264c576040517f08c379a000000000000000000000000000000000000000000000000000000000815260040161264390613abb565b60405180910390fd5b50505050565b6060600082141561269a576040518060400160405280600181526020017f300000000000000000000000000000000000000000000000000000000000000081525090506127fa565b600082905060005b600082146126cc5780806126b590614050565b915050600a826126c59190613e66565b91506126a2565b60008167ffffffffffffffff81111561270e577f4e487b7100000000000000000000000000000000000000000000000000000000600052604160045260246000fd5b6040519080825280601f01601f1916602001820160405280156127405781602001600182028036833780820191505090505b5090505b600085146127f3576001826127599190613ef1565b9150600a856127689190614099565b60306127749190613e10565b60f81b8183815181106127b0577f4e487b7100000000000000000000000000000000000000000000000000000000600052603260045260246000fd5b60200101907effffffffffffffffffffffffffffffffffffffffffffffffffffffffffffff1916908160001a905350600a856127ec9190613e66565b9450612744565b8093505050505b919050565b6060600082519050600081141561282857604051806020016040528060008152509150506129b8565b600060036002836128399190613e10565b6128439190613e66565b600461284f9190613e97565b905060006020826128609190613e10565b67ffffffffffffffff81111561289f577f4e487b7100000000000000000000000000000000000000000000000000000000600052604160045260246000fd5b6040519080825280601f01601f1916602001820160405280156128d15781602001600182028036833780820191505090505b5090506000604051806060016040528060408152602001614856604091399050600181016020830160005b868110156129755760038101905062ffffff818a015116603f8160121c168401518060081b905060ff603f83600c1c1686015116810190508060081b905060ff603f8360061c1686015116810190508060081b905060ff603f831686015116810190508060e01b905080845260048401935050506128fc565b50600386066001811461298f576002811461299f576129aa565b613d3d60f01b60028303526129aa565b603d60f81b60018303525b508484525050819450505050505b919050565b612a5582826040516024016129d3929190613985565b6040516020818303038152906040527f4b5c4277000000000000000000000000000000000000000000000000000000007bffffffffffffffffffffffffffffffffffffffffffffffffffffffff19166020820180517bffffffffffffffffffffffffffffffffffffffffffffffffffffffff8381831617835250505050612a59565b5050565b60008151905060006a636f6e736f6c652e6c6f679050602083016000808483855afa5050505050565b505050565b505050565b612a968383612c7e565b612aa36000848484612ae7565b612ae2576040517f08c379a0000000000000000000000000000000000000000000000000000000008152600401612ad990613abb565b60405180910390fd5b505050565b6000612b088473ffffffffffffffffffffffffffffffffffffffff16612e58565b15612c71578373ffffffffffffffffffffffffffffffffffffffff1663150b7a02612b31611f1c565b8786866040518563ffffffff1660e01b8152600401612b5394939291906138a3565b602060405180830381600087803b158015612b6d57600080fd5b505af1925050508015612b9e57506040513d601f19601f82011682018060405250810190612b9b9190613208565b60015b612c21573d8060008114612bce576040519150601f19603f3d011682016040523d82523d6000602084013e612bd3565b606091505b50600081511415612c19576040517f08c379a0000000000000000000000000000000000000000000000000000000008152600401612c1090613abb565b60405180910390fd5b805181602001fd5b63150b7a0260e01b7bffffffffffffffffffffffffffffffffffffffffffffffffffffffff1916817bffffffffffffffffffffffffffffffffffffffffffffffffffffffff191614915050612c76565b600190505b949350505050565b600073ffffffffffffffffffffffffffffffffffffffff168273ffffffffffffffffffffffffffffffffffffffff161415612cee576040517f08c379a0000000000000000000000000000000000000000000000000000000008152600401612ce590613bdb565b60405180910390fd5b612cf781611eb0565b15612d37576040517f08c379a0000000000000000000000000000000000000000000000000000000008152600401612d2e90613afb565b60405180910390fd5b612d4360008383612a82565b6001600360008473ffffffffffffffffffffffffffffffffffffffff1673ffffffffffffffffffffffffffffffffffffffff1681526020019081526020016000206000828254612d939190613e10565b92505081905550816002600083815260200190815260200160002060006101000a81548173ffffffffffffffffffffffffffffffffffffffff021916908373ffffffffffffffffffffffffffffffffffffffff160217905550808273ffffffffffffffffffffffffffffffffffffffff16600073ffffffffffffffffffffffffffffffffffffffff167fddf252ad1be2c89b69c2b068fc378daa952ba7f163c4a11628f55a4df523b3ef60405160405180910390a4612e5460008383612a87565b5050565b6000808273ffffffffffffffffffffffffffffffffffffffff163b119050919050565b60405180606001604052806060815260200160608152602001600081525090565b828054612ea890613fed565b90600052602060002090601f016020900481019282612eca5760008555612f11565b82601f10612ee357805160ff1916838001178555612f11565b82800160010185558215612f11579182015b82811115612f10578251825591602001919060010190612ef5565b5b509050612f1e9190612f4a565b5090565b6040518060800160405280600081526020016060815260200160608152602001600081525090565b5b80821115612f63576000816000905550600101612f4b565b5090565b6000612f7a612f7584613d52565b613d2d565b905082815260208101848484011115612f9257600080fd5b612f9d848285613fab565b509392505050565b600081359050612fb48161472b565b92915050565b600081359050612fc981614742565b92915050565b600081359050612fde81614759565b92915050565b600081519050612ff381614759565b92915050565b600082601f83011261300a57600080fd5b813561301a848260208601612f67565b91505092915050565b60008135905061303281614770565b92915050565b60006020828403121561304a57600080fd5b600061305884828501612fa5565b91505092915050565b6000806040838503121561307457600080fd5b600061308285828601612fa5565b925050602061309385828601612fa5565b9150509250929050565b6000806000606084860312156130b257600080fd5b60006130c086828701612fa5565b93505060206130d186828701612fa5565b92505060406130e286828701613023565b9150509250925092565b6000806000806080858703121561310257600080fd5b600061311087828801612fa5565b945050602061312187828801612fa5565b935050604061313287828801613023565b925050606085013567ffffffffffffffff81111561314f57600080fd5b61315b87828801612ff9565b91505092959194509250565b6000806040838503121561317a57600080fd5b600061318885828601612fa5565b925050602061319985828601612fba565b9150509250929050565b600080604083850312156131b657600080fd5b60006131c485828601612fa5565b92505060206131d585828601613023565b9150509250929050565b6000602082840312156131f157600080fd5b60006131ff84828501612fcf565b91505092915050565b60006020828403121561321a57600080fd5b600061322884828501612fe4565b91505092915050565b60006020828403121561324357600080fd5b600061325184828501613023565b91505092915050565b600061326683836136a8565b905092915050565b61327781613f25565b82525050565b600061328882613d93565b6132928185613dc1565b9350836020820285016132a485613d83565b8060005b858110156132e057848403895281516132c1858261325a565b94506132cc83613db4565b925060208a019950506001810190506132a8565b50829750879550505050505092915050565b6132fb81613f37565b82525050565b600061330c82613d9e565b6133168185613dd2565b9350613326818560208601613fba565b61332f81614186565b840191505092915050565b61334381613f99565b82525050565b600061335482613da9565b61335e8185613de3565b935061336e818560208601613fba565b61337781614186565b840191505092915050565b600061338d82613da9565b6133978185613df4565b93506133a7818560208601613fba565b6133b081614186565b840191505092915050565b60006133c682613da9565b6133d08185613e05565b93506133e0818560208601613fba565b80840191505092915050565b60006133f9609883613e05565b915061340482614197565b609882019050919050565b600061341c600b83613e05565b915061342782614258565b600b82019050919050565b600061343f603283613df4565b915061344a82614281565b604082019050919050565b6000613462602583613df4565b915061346d826142d0565b604082019050919050565b6000613485601c83613df4565b91506134908261431f565b602082019050919050565b60006134a8602483613df4565b91506134b382614348565b604082019050919050565b60006134cb601983613df4565b91506134d682614397565b602082019050919050565b60006134ee602c83613df4565b91506134f9826143c0565b604082019050919050565b6000613511603d83613e05565b915061351c8261440f565b603d82019050919050565b6000613534603883613df4565b915061353f8261445e565b604082019050919050565b6000613557602a83613df4565b9150613562826144ad565b604082019050919050565b600061357a602983613df4565b9150613585826144fc565b604082019050919050565b600061359d600483613e05565b91506135a88261454b565b600482019050919050565b60006135c0602083613df4565b91506135cb82614574565b602082019050919050565b60006135e3602c83613df4565b91506135ee8261459d565b604082019050919050565b6000613606600a83613e05565b9150613611826145ec565b600a82019050919050565b6000613629602183613df4565b915061363482614615565b604082019050919050565b600061364c601d83613e05565b915061365782614664565b601d82019050919050565b600061366f603183613df4565b915061367a8261468d565b604082019050919050565b6000613692603d83613df4565b915061369d826146dc565b604082019050919050565b60006080830160008301516136c060008601826137d3565b50602083015184820360208601526136d88282613349565b915050604083015184820360408601526136f28282613349565b915050606083015161370760608601826137d3565b508091505092915050565b600060808301600083015161372a60008601826137d3565b50602083015184820360208601526137428282613349565b9150506040830151848203604086015261375c8282613349565b915050606083015161377160608601826137d3565b508091505092915050565b600060608301600083015184820360008601526137998282613349565b915050602083015184820360208601526137b38282613349565b91505060408301516137c860408601826137d3565b508091505092915050565b6137dc81613f8f565b82525050565b6137eb81613f8f565b82525050565b60006137fc826135f9565b915061380882876133bb565b91506138138261340f565b915061381f82866133bb565b915061382a826133ec565b915061383682856133bb565b915061384182613504565b915061384d82846133bb565b915061385882613590565b915081905095945050505050565b60006138718261363f565b915061387d82846133bb565b915081905092915050565b600060208201905061389d600083018461326e565b92915050565b60006080820190506138b8600083018761326e565b6138c5602083018661326e565b6138d260408301856137e2565b81810360608301526138e48184613301565b905095945050505050565b6000606082019050613904600083018661326e565b61391160208301856137e2565b61391e604083018461333a565b949350505050565b60006020820190508181036000830152613940818461327d565b905092915050565b600060208201905061395d60008301846132f2565b92915050565b6000602082019050818103600083015261397d8184613382565b905092915050565b6000604082019050818103600083015261399f8185613382565b905081810360208301526139b38184613382565b90509392505050565b600060608201905081810360008301526139d68186613382565b905081810360208301526139ea8185613382565b905081810360408301526139fe8184613382565b9050949350505050565b60006060820190508181036000830152613a228186613382565b90508181036020830152613a368185613382565b9050613a4560408301846137e2565b949350505050565b60006040820190508181036000830152613a678185613382565b9050613a7660208301846137e2565b9392505050565b60006060820190508181036000830152613a978186613382565b9050613aa660208301856137e2565b613ab360408301846137e2565b949350505050565b60006020820190508181036000830152613ad481613432565b9050919050565b60006020820190508181036000830152613af481613455565b9050919050565b60006020820190508181036000830152613b1481613478565b9050919050565b60006020820190508181036000830152613b348161349b565b9050919050565b60006020820190508181036000830152613b54816134be565b9050919050565b60006020820190508181036000830152613b74816134e1565b9050919050565b60006020820190508181036000830152613b9481613527565b9050919050565b60006020820190508181036000830152613bb48161354a565b9050919050565b60006020820190508181036000830152613bd48161356d565b9050919050565b60006020820190508181036000830152613bf4816135b3565b9050919050565b60006020820190508181036000830152613c14816135d6565b9050919050565b60006020820190508181036000830152613c348161361c565b9050919050565b60006020820190508181036000830152613c5481613662565b9050919050565b60006020820190508181036000830152613c7481613685565b9050919050565b60006020820190508181036000830152613c958184613712565b905092915050565b60006020820190508181036000830152613cb7818461377c565b905092915050565b6000602082019050613cd460008301846137e2565b92915050565b6000608082019050613cef60008301876137e2565b8181036020830152613d018186613382565b90508181036040830152613d158185613382565b9050613d2460608301846137e2565b95945050505050565b6000613d37613d48565b9050613d43828261401f565b919050565b6000604051905090565b600067ffffffffffffffff821115613d6d57613d6c614157565b5b613d7682614186565b9050602081019050919050565b6000819050602082019050919050565b600081519050919050565b600081519050919050565b600081519050919050565b6000602082019050919050565b600082825260208201905092915050565b600082825260208201905092915050565b600082825260208201905092915050565b600082825260208201905092915050565b600081905092915050565b6000613e1b82613f8f565b9150613e2683613f8f565b9250827fffffffffffffffffffffffffffffffffffffffffffffffffffffffffffffffff03821115613e5b57613e5a6140ca565b5b828201905092915050565b6000613e7182613f8f565b9150613e7c83613f8f565b925082613e8c57613e8b6140f9565b5b828204905092915050565b6000613ea282613f8f565b9150613ead83613f8f565b9250817fffffffffffffffffffffffffffffffffffffffffffffffffffffffffffffffff0483118215151615613ee657613ee56140ca565b5b828202905092915050565b6000613efc82613f8f565b9150613f0783613f8f565b925082821015613f1a57613f196140ca565b5b828203905092915050565b6000613f3082613f6f565b9050919050565b60008115159050919050565b60007fffffffff0000000000000000000000000000000000000000000000000000000082169050919050565b600073ffffffffffffffffffffffffffffffffffffffff82169050919050565b6000819050919050565b6000613fa482613f8f565b9050919050565b82818337600083830152505050565b60005b83811015613fd8578082015181840152602081019050613fbd565b83811115613fe7576000848401525b50505050565b6000600282049050600182168061400557607f821691505b6020821081141561401957614018614128565b5b50919050565b61402882614186565b810181811067ffffffffffffffff8211171561404757614046614157565b5b80604052505050565b600061405b82613f8f565b91507fffffffffffffffffffffffffffffffffffffffffffffffffffffffffffffffff82141561408e5761408d6140ca565b5b600182019050919050565b60006140a482613f8f565b91506140af83613f8f565b9250826140bf576140be6140f9565b5b828206905092915050565b7f4e487b7100000000000000000000000000000000000000000000000000000000600052601160045260246000fd5b7f4e487b7100000000000000000000000000000000000000000000000000000000600052601260045260246000fd5b7f4e487b7100000000000000000000000000000000000000000000000000000000600052602260045260246000fd5b7f4e487b7100000000000000000000000000000000000000000000000000000000600052604160045260246000fd5b6000601f19601f8301169050919050565b7f222c20226465736372697074696f6e223a202254686973206973206120446f6a60008201527f6f206865616c746820617661746172207468616e2063616e206265207573656460208201527f20696e20616e792065636f73797374656d20746f2070726f766964652072657760408201527f6172647320746f20796f75206265636175736520796f7520617265206865616c60608201527f74687921222c2022696d616765223a2022697066733a2f2f0000000000000000608082015250565b7f202d2d204e465420233a20000000000000000000000000000000000000000000600082015250565b7f4552433732313a207472616e7366657220746f206e6f6e20455243373231526560008201527f63656976657220696d706c656d656e7465720000000000000000000000000000602082015250565b7f4552433732313a207472616e736665722066726f6d20696e636f72726563742060008201527f6f776e6572000000000000000000000000000000000000000000000000000000602082015250565b7f4552433732313a20746f6b656e20616c7265616479206d696e74656400000000600082015250565b7f4552433732313a207472616e7366657220746f20746865207a65726f2061646460008201527f7265737300000000000000000000000000000000000000000000000000000000602082015250565b7f4552433732313a20617070726f766520746f2063616c6c657200000000000000600082015250565b7f4552433732313a206f70657261746f7220717565727920666f72206e6f6e657860008201527f697374656e7420746f6b656e0000000000000000000000000000000000000000602082015250565b7f222c202261747472696275746573223a205b207b202274726169745f7479706560008201527f223a20224865616c746820737461747573222c202276616c7565223a20000000602082015250565b7f4552433732313a20617070726f76652063616c6c6572206973206e6f74206f7760008201527f6e6572206e6f7220617070726f76656420666f7220616c6c0000000000000000602082015250565b7f4552433732313a2062616c616e636520717565727920666f7220746865207a6560008201527f726f206164647265737300000000000000000000000000000000000000000000602082015250565b7f4552433732313a206f776e657220717565727920666f72206e6f6e657869737460008201527f656e7420746f6b656e0000000000000000000000000000000000000000000000602082015250565b7f7d205d7d00000000000000000000000000000000000000000000000000000000600082015250565b7f4552433732313a206d696e7420746f20746865207a65726f2061646472657373600082015250565b7f4552433732313a20617070726f76656420717565727920666f72206e6f6e657860008201527f697374656e7420746f6b656e0000000000000000000000000000000000000000602082015250565b7f7b226e616d65223a202200000000000000000000000000000000000000000000600082015250565b7f4552433732313a20617070726f76616c20746f2063757272656e74206f776e6560008201527f7200000000000000000000000000000000000000000000000000000000000000602082015250565b7f646174613a6170706c69636174696f6e2f6a736f6e3b6261736536342c000000600082015250565b7f4552433732313a207472616e736665722063616c6c6572206973206e6f74206f60008201527f776e6572206e6f7220617070726f766564000000000000000000000000000000602082015250565b7f4572726f723a20636861726163746572206e6565647320746f20776f726b6f7560008201527f7420736f20746865792063616e2077617465722074686520747265652e000000602082015250565b61473481613f25565b811461473f57600080fd5b50565b61474b81613f37565b811461475657600080fd5b50565b61476281613f43565b811461476d57600080fd5b50565b61477981613f8f565b811461478457600080fd5b5056fe68747470733a2f2f636c6f7564666c6172652d697066732e636f6d2f697066732f516d5269613968655865707935746a64385767513866504279426d4b7150383741765352356a72687a3568595a7468747470733a2f2f636c6f7564666c6172652d697066732e636f6d2f697066732f516d656d757435336958776d674e504a556556676b686b7773704c4859756e6b6b6643617a5952706946727948720a506c6179657220772f206368617261637465722025732061626f757420746f2077617465722074686520747265652e4142434445464748494a4b4c4d4e4f505152535455565758595a6162636465666768696a6b6c6d6e6f707172737475767778797a303132333435363738392b2f4d696e746564204e465420772f20746f6b656e496420257320616e6420636861726163746572496e646578202573a264697066735822122069e5658223f2a808f7445edcbc94847045666f7a8a1cd1ce29c5d221f13fa8da64736f6c63430008010033446f6e6520696e697469616c697a696e67207472656520257320772f20696d67202573",
  "linkReferences": {},
  "deployedLinkReferences": {}
}